:020000040800F2
:10000000F8FF012065AB0408EB3B0408D93B04086A
:10001000ED3B0408FD3B04080D3C04080000000013
:100020000000000000000000000000001D3C04086B
:100030001F3C040800000000C53F0408FD3F040801
:1000400055AA04088D3C0408993C0408A13C040806
:1000500019A0040855AA0408213C0408273C0408F8
:100060002D3C0408333C0408393C0408E15D0408D5
:10007000F15D0408015E0408115E0408215E0408B5
:10008000315E0408415E040855AA0408000000001F
:100090000000000000000000000000003F3C0408D9
:1000A000B53C0408BB3C0408CD3C0408D33C040820
:1000B000D93C0408DF3C0408E53C0408173D04086B
:1000C0001D3D0408233D0408293D040855AA0408E1
:1000D00055AA0408053D04080B3D04080000000073
:1000E000633C0408933C040855AA0408000000007F
:1000F000000000000000000000000000515E040845
:100100000000000055AA0408ED3C040855AA0408A4
:1001100000000000000000000000000000000000DF
:10012000615E0408715E0408815E0408915E040843
:10013000A15E0408000000000000000000000000B4
:1001400000000000000000000000000055AA0408A4
:10015000B15E0408C15E0408D15E0408113D0408C4
:100160002F3D0408353D0408000000000000000099
:10017000000000000000000000000000000000007F
:100180000000000055AA0408000000000000000064
:1001900055AA040855AA0408006870470B0A0170A4
:1001A00043700B0C090E8370C1707047036A0239EB
:1001B000023B8B4283BFC389406B01FB03000020DD
:1001C0007047C2F307238A76CB764379032B01BFAE
:1001D000120C0A75120A4A75704700F10B010022D1
:1001E000D30143EA520310F8012B52FA83F38842F9
:1001F000DAB2F5D11046704737B50D46044620B93E
:10020000092000232B6003B030BD0368002BF7D01A
:100210005A79002AF4D081885A899142F0D118681D
:100220000DF10702062102F06BFA9DF8073003F08A
:100230000103034313F0FF00E2D12368E2E72DE955
:10024000F0470026D0F800A08E75836907460C465B
:10025000002B00F08D80C36A01336ED1FA69002350
:10026000551E18462E2615F8011F202900F1010001
:100270000CD0052908BFE521092804D10B2B9EBF0E
:10028000E71801337E72E718013379720B28EAD13F
:10029000E11800204872A17D00295ED1002B53D0C7
:1002A0006FF0080604F109000825361B331810F812
:1002B000011B00294BD02E298BB25BD0A3F1410149
:1002C000192903D8117B0D4200D020330373EDE7C9
:1002D000B9F1000F05D100F520539BB2B3F5006FC3
:1002E00013D340F2B51140EA09404EF0A3FEFF28B7
:1002F000C8F1FF0519D9012D22D904EB0803020A20
:100300009A75D87502239844002002368146DAF89F
:100310001030985B0028DBD14546B9F1000F18BFBB
:10032000002525440023AB7598E758B1002DF4D083
:1003300004EB080398750123E5E7B146B046E6E70C
:100340000025EAE70546E8E73F23A3750123234498
:1003500000219975137B03B96372D37A237202F17A
:100360001C00FFF719FF2060D38AE380138BA38062
:10037000BDE8F08710250B46A8E738B505680446A8
:1003800015F8010B20B140F2B5114EF073FE08B123
:10039000256038BD4FF0FF30FBE737B5C379044621
:1003A0001BB90025284603B030BD00F13C01826B2B
:1003B00000680191012302F08EF9054680B9E36AD5
:1003C000E071A06B626AC31A9342EAD2A3790199E1
:1003D000022BE6D102440123206802F07CF9E1E718
:1003E0000125DFE738B5836B8B4205460C4610D0FC
:1003F000FFF7D3FF60B922462868012305F13C01CD
:1004000002F05AF900281CBF4FF0FF340120AC6302
:1004100038BD0020FCE7000038B50023C3714FF061
:10042000FF3383630546FFF7DDFF0446F8B9B5F8EF
:100430003A224AF655239A421BD195F83C30EB2BD1
:1004400003D01833DBB2012B15D80C49032205F178
:1004500072003EF095FF40B10949052205F18E007A
:100460003EF08EFF002818BF0224204638BD042429
:10047000FBE70324F9E70224F7E700BF464106083B
:100480004A410608F0B5437987B0044601F0FE05FD
:100490008BB100680DF10702062102F031F99DF8D9
:1004A0000730DE0707D41DB113F0040500D00A257C
:1004B000284607B0F0BD0023637120680DF10702E4
:1004C000052102F01DF99DF80730D80700F1E680FC
:1004D0000DB15907EBD400212046FFF79DFF0228FC
:1004E00003D0012823D825796DB302AA04F2022390
:1004F00004F24221174613F8040C10B11846FFF716
:100500004BFE1033994242F8040BF4D1267906B120
:10051000013E57F8265075B129462046FFF77CFF6B
:10052000237953B901280ED90136032EF1D90428B5
:1005300007D10125BCE70320F2E70428F9D0012800
:1005400001D90D25B4E7B4F84730B3F5007FF8D1F1
:10055000B4F8521021B904F16000FFF71DFE014606
:1005600094F84C3061625A1E012AA371E9D894F8BC
:100570004960E681002EE4D0721E3242E1D1B4F827
:100580004D70A7813A07DCD1B4F84F0018B904F1D7
:100590005C00FFF701FEB4F84A20002AD1D001FB2D
:1005A00003FE02EB171CF4446045CAD3A0EB0C0019
:1005B000B042B0FBF6F3C4D33D488342C1D84FF6F6
:1005C000F57083426CD9032602332A440CEB0500F4
:1005D000032E2362A562E26260634FD1B4F8662005
:1005E0003A43AED104F16800FFF7D6FD9B002063CB
:1005F00003F2FF13B1EB532FA3D34FF0FF33C4E942
:100600000533032E4FF0800323722BD1B4F86C30E6
:10061000012B27D1691C2046FFF7E4FE10BBB4F87C
:100620003A2220724AF655239A421BD104F13C002B
:10063000FFF7B2FD1F4B984214D104F50870FFF785
:10064000ABFD03F1FF5303F500532033984209D16A
:1006500004F50970FFF7A0FDA06104F50A70FFF72B
:100660009BFD6061144A6671138801339BB213804D
:1006700063810025114B2361E56119E7002F3FF4E9
:1006800060AF7244022E22634FEA43021BBFD218AE
:1006900003F00103134603EB5203A9E7032507E721
:1006A00040F6F576B3428CBF022601268CE700BFE8
:1006B000F5FFFF0F525261417C4800207E48002028
:1006C00001292DE9F04706460C46174673D9036AFF
:1006D0008B4270D94379022B3FD0032B50D0012B92
:1006E00069D101EB5108C16A01EB5821FFF77AFE8D
:1006F000054638BB06F13C0908F1010AC8F30808B1
:1007000014F001041FBF19F8083003F00F023B0179
:1007100003F0F00314BF1343FBB209F80830F16A89
:100720000123F37101EB5A213046FFF75BFE0546CA
:1007300040B9CAF3080A44B1C7F3071709F80A70A9
:100740000123F3712846BDE8F08719F80A30C7F392
:10075000032723F00F031F43F0E7C16A01EB1421C5
:10076000FFF740FE05460028ECD1640006F13C038B
:1007700004F4FF7418191F55C7F307274770DFE704
:10078000C16A01EBD411FFF72DFE05460028D9D12F
:10079000A40006F13C0304F4FE741C442046FFF759
:1007A000FBFC27F0704700F0704047EA000120464C
:1007B000FFF7F4FCC4E70225C4E7F7B5054601914D
:1007C000FFF7EBFD044600BB01992846FFF7EEFC5E
:1007D00005F13C070646A8634FF4007221463846EF
:1007E0003EF0A6FDEB899C4205D3E889001B18BFAB
:1007F000012003B0F0BD286801233219394601F009
:100800006AFF0028F1D10134ECE70120F1E7F8B5E7
:100810000446FFF7C2FD0546002842D16379032B49
:1008200037D1277A012F34D104F13C0601464FF429
:10083000007230463EF07CFD552384F83A32AA23FC
:1008400084F83B3252234122722184F83C3084F8F0
:100850003D30612384F83E3084F8233284F83F2011
:1008600084F8201284F8211284F82222A16904F568
:100870000970FFF793FC616904F50A70FFF78EFCBD
:10088000A26A20680132A2633B46314601F023FF91
:10089000257200222068114601F032FF003818BF8F
:1008A0000120F8BD03284B8B04BF8A8A43EA024328
:1008B000184670470129F8B506460C464ED9036A1A
:1008C00099424BD24379022B29D0032B34D0012BF0
:1008D00044D101EB5105C16A01EB5521FFF782FDBF
:1008E00010B14FF0FF30F8BD6F1CF16AC5F3080579
:1008F000354401EB5721304695F83C50FFF772FD27
:100900000028EED1C7F308073E44E30796F83C0001
:1009100045EA00204CBF0009C0F30B00E3E7C16AC1
:1009200001EB1421FFF75EFD0028DAD1640004F426
:10093000FF742644B08FD6E7C16A01EBD411FFF7EC
:1009400051FD0028CDD1A40006F13C0004F4FE7452
:100950002044FFF721FC20F07040C4E70120C2E7EB
:1009600037B50C46012C054611462BD9036A9C422B
:1009700028D222B14FF0FF32FFF7A2FE40B9214644
:1009800028460194FFF796FF0199044610B900200C
:1009900003B030BD012815D0431C15D000222846D5
:1009A000FFF78EFE0028F3D12A6AAB69911E8B42B5
:1009B00005D20133AB612B7A43F001032B729442D1
:1009C000DDD3E4E70220E3E70120E1E7F8B50546DF
:1009D0000F4649B94669B6B1036A9E4228BF01264F
:1009E000AB6993B9002405E0FFF764FF01280446D2
:1009F00002D801242046F8BD421C50D02B6A9842F0
:100A0000F8D33E46ECE70126EAE7B74215D12B6A58
:100A10007C1C9C4228BF022421462846FFF74AFF3F
:100A20000128E6D0431C3AD0D8B16B69012B04D918
:100A30002A6A934234BF1E463E4634462B6A01342E
:100A40009C4202D3012ECDD9022421462846FFF72D
:100A500031FF40B10128CCD0013020D0A642EDD1E9
:100A6000C0E7002CE9D04FF0FF3221462846FFF7BF
:100A700027FE90B957B92A6AAB696C61023A934272
:100A800010D92B7A43F001032B72B3E72246394683
:100A90002846FFF715FE0028EDD00128A9D14FF018
:100AA000FF34A7E7013BAB61EBE72DE9F8430769AA
:100AB00006682037B7F5001F24BF002383618369D0
:100AC0000446894673B1C7F30808B8F1000F39D15D
:100AD00041690133836139B9B389B3EB571F31D809
:100AE0000023A36104200BE0F389013B13EA5723A1
:100AF00028D13046FFF7DEFE0128054602D8022045
:100B0000BDE8F883421C01D10120F9E7336A834232
:100B100012D8B9F1000FE3D061692068FFF756FFE2
:100B20000546A8B10128EAD0431CEDD00146304665
:100B3000FFF743FE0028E7D1656129463046FFF7FD
:100B400035FBA0613C3646442761E6610020D7E7CB
:100B50000720D5E72DE9F047FF27D0F8009006469B
:100B600088463D4604244FF6FF7AB16911B9002C3E
:100B700064D054E04846FFF735FC044600284ED1C7
:100B8000F0690178002961D0C37AE52903F03F03B9
:100B9000B37149D02E2947D023F02002A2F1080CCE
:100BA000DCF1000242EB0C0242453DD10F2B40D15B
:100BB0004C0637D53369477BF36201F0BF01437BB5
:100BC000BB4231D1428B7ABB0378D9F81040DFF8B1
:100BD00080E023F040030D25013B6B4301251EF807
:100BE00001CB30F80CC00DB3FF2B1DD824F813C077
:100BF0006546013301320D2AF1D10278520605D53E
:100C000025B1FF2B10D8002224F813204D1EEDB281
:100C100000213046FFF749FF04460028A5D00023F5
:100C2000B3610CE08D42CAD0FF25F1E7D445E1D095
:100C3000FAE73DB9FFF7D1FAB84203D100242046C4
:100C4000BDE8F0874FF0FF33F362F8E70424E6E7EE
:100C500014420608B1F5001FF8B506460C4601D34C
:100C60000220F8BDCA06FBD1826805680161CAB9D5
:100C70006B79022B01D92B6B9BB9AB89B3EB541F5A
:100C8000EED92B6BB361B3697261002BE8D003EB33
:100C900054233C35C4F308042C44B361F4610020B0
:100CA000DFE71A46EF897F02BC42114604D228468C
:100CB000FFF77CFAB061E6E73068FFF7FBFD431C05
:100CC000024606D00128CBD92B6A8342C8D9E41B3F
:100CD000EAE70120C5E7F8B50E460021076804469B
:100CE000FFF7B8FFA8B90546A1693846FFF77AFBB8
:100CF00078B9E3691B78E52B00D01BB90135B54203
:100D000001D1F8BD054601212046FFF7CEFE00289F
:100D1000EAD0042808BF0720F3E7C16A4B1C2DE97D
:100D2000F04105680669044618D1E5274FF001082F
:100D3000A1692846FFF756FB60B9E3691F7085F883
:100D400007802369B3420DD201462046FFF7ADFE6E
:100D50000028EDD0042808BF022003E0FFF77AFF47
:100D60000028E2D0BDE8F0812DE9F04F002185B0E8
:100D7000D0F800B00446FFF76DFF0546002840F0AC
:100D80008D804FF0FF3A4FF0FF08C4F82CA0C14609
:100D9000A1695846FFF726FB054600287ED1E66983
:100DA0003778002F7ED0F27AE52F02F03F03A3714F
:100DB00003D0100704D50F2B04D0C4F82CA050E0AA
:100DC0000F2B56D194F82B30590640D47A0646D5CD
:100DD000236996F80D80E36207F0BF07737B4345F4
:100DE0003FD1738B002B3CD13578DBF8103000936A
:100DF00005F03F05013D0D23DFF8B0905D43012272
:100E000019F8013BF35A7AB3FF2D2AD818460393F9
:100E10004EF044F9009B0290691C33F815000191D3
:100E20004EF03CF9029A82421BD1039B01991A466B
:100E30000D461D4B9945E3D133785B0604D51AB1B5
:100E4000009B33F8153063B9013F5FFA87F9002141
:100E50002046FFF72AFE0546002899D01EE0B94536
:100E6000BCD04FF0FF09F2E74FF6FF718B42E0D0A4
:100E7000F7E7B9F1000F04D13046FFF7AEF940456E
:100E80000CD094F82B5015F0010596D10B2204F1EB
:100E9000200130463EF074FA00288ED1284605B075
:100EA000BDE8F08F0425F9E7214206081442060840
:100EB0002DE9F04F90F82BB01BF0A00489B0054647
:100EC00040F0E18007683A6932F81430002B6AD1AB
:100ED00005F1200696E807000DF1140A1BF0010F3A
:100EE0008AE8070000F0D680402385F82B304FF0C9
:100EF00001089AE80700B4463B69ACE803002CF807
:100F0000022BB8F1050F4FEA12428CF800205ED98F
:100F1000981E424630F8021F002946D10DF1130CED
:100F2000072102F00F0E0EF13000392888BF0EF1B4
:100F300037000F2A0CF8010901F1FF314FEA1210B6
:100F400047D808AB5A187E2002F8140C304600220D
:100F5000914206D010F801CBBCF1200F02F1010E36
:100F600039D105F11F0C07299CBF08AB581802F1B5
:100F7000010296BF10F8140C20200131072A0CF84A
:100F80000200F0D92846FFF7EFFE814600287DD108
:100F900008F10108B8F1640FABD14FF007094846DA
:100FA00009B0BDE8F08F01348EE74FF0100C01F06E
:100FB000010E0EEB4202D30344BF82F4883282F06A
:100FC0002102BCF1010C4FEA5101F0D1A2E74246E7
:100FD000A4E70246A5E77246BAE729692846A1EBCD
:100FE0004411FFF737FE81460028D8D13046FFF77D
:100FF000F4F84FF6FF780190A9693846FFF7F2F947
:1010000081460028CBD1EB69019AD7F810E05A73DA
:10101000E1B24FF00F024FF00D0CDA72DFF8D8A0FA
:1010200018734A1E0CFB02F29876D87684461AF89A
:10103000019B404518BF3EF8120003F8090003EB7E
:10104000090B0CF1010C18BF01324FEA10290028DE
:1010500008BF4046BCF10D0F8BF80190E7D1404529
:1010600002D03EF812200AB941F040011970012364
:10107000FB7100212846FFF718FD814600288ED11C
:10108000013CB9D11AE04FF0060988E7042886D15F
:1010900085F82BB01BF0020F1BBF0C340D2101246F
:1010A000B4FBF1F418BF013421462846FFF713FEC4
:1010B000814600287FF473AF013C8ED1A969384680
:1010C000FFF790F9814600287FF469AF014620229E
:1010D000E8693EF02DF903CEEB6918605960B278EB
:1010E000318819819A7295F82B30EA6903F0180358
:1010F00013730123FB7152E7144206082DE9F04FE8
:101100000B78D0F800B02F2B87B00646884601D068
:101110005C2B0AD1424613782F2B904602F1010234
:10112000F9D05C2BF7D0002301E0DBF81C30B36072
:1011300098F800301F2B00F21D81802300213046DB
:1011400086F82B3007B0BDE8F04FFFF783BDFE2DCA
:1011500000F239812AF81530013511E108F1010159
:101160000591DDF8148098F800202F2AF6D05C2A2B
:10117000F4D0202B34BF04240024012D2DD1BAF843
:1011800000302E2B2FD100232AF8153006F1200233
:101190009D428CBF2E21202101330B2B02F8011B15
:1011A000F6D144F0200486F82B403046FFF7DCFDF2
:1011B00096F82B30002800F0CD80042840F0048100
:1011C000990603F0040240F1C180002A00F0D280A9
:1011D000802386F82B300020F6E0022D03D1BAF8E8
:1011E00002302E2BCBD0AAF102028DBB00232AF8AD
:1011F0001530002D00F0E7803AF81320202A194618
:1012000003F10103F8D009B92E2A01D144F00304F7
:10121000AAF1020232F815302E2B01D0013DF9D18E
:101220004FF020334FF0000973623362C6F8273065
:101230004F4608233AF811004A1CE8B1202803D091
:101240002E280DD195420FD044F003041146F1E74A
:1012500032F81530202B01D02E2BC7D1013DC4E729
:10126000994504D2954234D10B2B2BD101E00B2BA5
:1012700023D144F003040B2396F82020E52A04BF71
:10128000052286F82020082B04BFBF00FFB207F01C
:101290000C030C2B03D007F00303032B01D144F004
:1012A0000204A3073FF57FAFFD0748BF44F01004D9
:1012B000780748BF44F0080475E7954202D044F02F
:1012C0000304D9D3BF00FFB22A460B234FF008090D
:1012D000BCE77F2813D9CDE9022340F2B51144F0D1
:1012E000020301934DF0A6FE10F0800FDDE902230A
:1012F00011D03F4900F07F00085C019C38B1DFF855
:10130000F8C01CF8011B002963D08142F9D144F0D8
:1013100003045F2010E0FF28EFD9591E894503D34D
:1013200044F00304994691E706EB0901040A81F8A9
:101330002040019C09F1010906EB090109F10109AD
:1013400081F8200082E747F00207F5E7002A08BF8E
:10135000052039E05A0737D4B379DB0637D5316930
:101360009BF805000BF13C03C1F308011944FFF79A
:1013700099FAB0603368CDF81480D3F810A0002536
:1013800005A8FEF7FAFF421C1DD0B0F5803F24BF30
:10139000030C2AF8153083B228BF01351F2B7FF6C6
:1013A000E0AE2F2B3FF4DDAE5C2B3FF4DAAE7F2BAB
:1013B0003FF6CDAE0F49184611F8012B002A3FF435
:1013C000C6AE8242F8D1062007B0BDE8F08F0520F6
:1013D000FAE7A0F1410189B21929B4D9A0F161015C
:1013E00089B219299EBF203847F0010780B2A3E7D0
:1013F00094410608504106085941060800214171F0
:10140000FFF740B82DE9F04105468CB090461E46E6
:101410000C46002900F0BB8003F03F073946FFF778
:1014200031F8002840F0AB80414668460095FFF750
:1014300065FE024620B99DF92B30002BB8BF06226D
:1014400016F01C0F68D0002A3AD0042A35D168461D
:10145000FFF72EFD024680BB47F00807DDF81C8031
:1014600068794146FFF71EFA064648F08FFF0146AD
:1014700008F10E00FEF792FE079B2022DA72079910
:1014800000222846FEF79DFE079B00221A775A7716
:101490009A77DA770123EB71DEB10098D5F83880BE
:1014A0003146FFF75DFA024638B941462846FEF755
:1014B00099FF013E6E61024658B10023236027E088
:1014C0009DF8063013F0110F30D1730759D430074F
:1014D000C4D4AB6B0799236261623807687948BF4F
:1014E00047F04007FFF7DEF9A060034601F11C005A
:1014F000FEF752FE6A89A280B9064FF00002064646
:10150000E060256027746274E261626110D4002299
:1015100010460CB0BDE8F081002ACED19DF806300F
:10152000D90630D4B207D4D5DE07D2D50722C4E716
:101530000028ECD0EF8960617F02B74210D300220F
:10154000A361002AB9D1C6F308010029DFD01946EA
:101550002846FEF72BFEC0B100EB5620E061D7E72E
:1015600019462068FFF7A6F901280346A6EB0706EF
:1015700003D9421CE1D10122E2E70222E0E7024660
:101580009BE7082299E7042297E7022295E70922C0
:10159000BEE72DE9F04F994685B000238846C9F88B
:1015A000003003A904461746FEF726FE0646F8B9A2
:1015B000667CEEB994F810A01AF0010300937CD079
:1015C000E2686369D21A974228BF174687B16269F9
:1015D000C2F30803002B57D1039BDB89013B13EABD
:1015E000522A15D142B9A06801280AD80226667489
:1015F000304605B0BDE8F08FA1692068FFF75AF9C1
:10160000F2E7431C03D10123009E6374F0E7A0615D
:10161000DDF80CB0A1695846FEF7C8FD0028E5D0FA
:10162000B7F5007F0AEB00022DD3BBF80E10019234
:101630000AEB572088424FEA572588BFA1EB0A05DD
:10164000DBF800002B46414601F036F80028DAD1DD
:101650000399CB795BB1886B019A801AA84206D2B4
:101660004FF400723C3108EB40203DF01DFE6D024E
:10167000D9F800302B44C9F8003063692B447F1B34
:10168000A8446361A2E7E2616569E1690398C5F373
:101690000805C5F50075BD4228BF3D46FEF7A2FE10
:1016A0000028B0D1039963693C31C3F308032A468B
:1016B000194440463DF0F8FDDAE7072698E72DE9A2
:1016C000F04F9A4685B000238946CAF8003003A936
:1016D00004461746FEF790FD064620BB667C16BB07
:1016E000237C9A0740F1A9806369FB4200D3DF4362
:1016F000AFB16369C3F30802002A40F08180039A06
:10170000B2F80E8008F1FF3818EA53281ED173B9D9
:10171000A06870B901462068FFF758F948B9237CE2
:1017200043F040032374304605B0BDE8F08FA16953
:10173000F1E7012802D102266674F4E7431C01D1C7
:101740000126F9E7A368A06103B9A0600398E369E3
:10175000826B9A4203D1FEF720FE0028F0D1039D50
:10176000A1692846FEF722FD0028E4D0B7F5007FE6
:1017700008EB000B36D3E98908EB572088424FEA83
:101780005723286888BFA1EB08035A4649460193AE
:1017900000F0A1FF05460028D2D1DDF80C80019BA6
:1017A000D8F83810A1EB0B0199420AD24FF400721D
:1017B00009EB412108F13C003DF076FD019B88F8E2
:1017C00007505D02DAF8003062692B44CAF8003035
:1017D0007F1BE368A94415446561AB422CBFE360FD
:1017E000E56085E76169E368994207D32846FEF71B
:1017F000D4FD0028A4D1039BC3F838B0C4F81CB0B2
:101800006569E1690398C5F30805C5F50075BD4232
:1018100028BF3D46FEF7E6FD002891D10398636995
:101820003C30C3F308032A46184449463DF03CFDCA
:10183000039B4FF00102DA71C4E7072673E7F7B59F
:1018400001A90546FEF7D8FC044660BB2C7C14F0C9
:10185000400428D048F09AFD296A07460198FEF70F
:10186000C1FD0446F8B96E6AF37A43F02003F372BF
:10187000AA6828683146FEF7A4FCE96806F11C0056
:10188000FEF78CFC394606F11600FEF787FC01983E
:10189000B4740123F474C371FEF7B9FF2B7C23F0F9
:1018A000400304462B74204603B0F0BD13B5044634
:1018B000FFF7C5FF28B901A92046FEF79DFC00B936
:1018C000206002B010BD70B50E468CB000210546F8
:1018D000FEF7D8FD044660B9314668460095FFF72B
:1018E0000DFC044690B99DF92B30002B04DA029BC5
:1018F000EB6120460CB070BD9DF80630DB0609D5C3
:1019000007996879FEF7CEFFE861F2E7042808BF7F
:101910000524EEE70524ECE72DE9F0470E4600210B
:10192000D2B0317081469046FEF7ACFD0546F0B965
:10193000D9F81C30CDF8009002934446DDF808A099
:10194000BAF1000F19D1444502D1013C2F23335580
:101950003346A11B1A5D03F8012B5A189045F9D89C
:10196000A8EB04030134A04538BF01231E44002323
:101970002846337052B0BDE8F08720216846FFF753
:1019800069F9002849D106994846FEF72BFD07461C
:10199000002840D1079999F80500FEF783FF3946E2
:1019A00002906846FFF756F9B8BB00216846FFF77A
:1019B000D1F80746A8BB079999F80500FEF772FF12
:1019C00050450AD039466846FFF76FF80028ECD03A
:1019D0000546042D08BF0225C9E70CA96846FEF795
:1019E0002EFC0DF14603194613F8012BBA460137B8
:1019F000002AF9D1BC4212D3A4EB0A00524630446B
:101A00003DF052FC631EA3EB0A032F226FEA0A0A81
:101A1000F254544492E70546A9E70546A7E7112585
:101A2000A5E70546D5E72DE9F3410D4601A9044692
:101A3000FEF7E2FB0646002850D1667C002E4DD111
:101A4000E368AB4204D2227C12F0020F08BF1D46AD
:101A50000022636962619DB90025E268636993426F
:101A600082BF227CE36042F04002C3F3080388BFD8
:101A70002274002B32D0E369AB4218BFE5612DE040
:101A8000019AD7897F02FBB1013B6A1EB3FBF7F1D4
:101A9000B2FBF7F28A4217D37A421340A16963611D
:101AA000ED1A0029D8D0BD42636922D863692B445E
:101AB0006361C5F30803002BCED00198FEF776FBD7
:101AC00050B100EB5525C8E7A16881B92068FEF741
:101AD0007DFF0128014605D102266674304602B01A
:101AE000BDE8F081481C01D10126F6E7A160A161A3
:101AF000D7E73B446361237C20689A07A5EB07087E
:101B000005D5FEF763FF054620B90146CEE7FEF78F
:101B1000D1FE05466B1CE7D0012DDDD9019B1B6A68
:101B2000AB42D9D9A56129464546BCE770B5054603
:101B300016460C4621B30021FEF7A4FC68B92560C7
:101B400031462046FFF7DAFAE0B994F92B30002B42
:101B50000BDBA379DB0603D40520002323600EE012
:101B60006879E169FEF79EFEA0606B89A380002181
:101B70002046FFF76FF80428EED00028EDD170BDA5
:101B80000920FCE70428E7D0E7E713B501A90446DC
:101B9000FEF732FB00B9206002B010BD73B50D46F0
:101BA00001A90446FEF728FB20B9014620461DB9CD
:101BB000FFF750F802B070BDFEF7CCFF10F0FB0647
:101BC000F8D129462046FEF73AFB31462046FEF77B
:101BD0006CFF042808BF0020ECE770B50E468CB0FF
:101BE000002104461546FEF74DFC0094044670B9EA
:101BF00031466846FFF782FA044640B99DF92B301A
:101C0000002B07DB1DB129466846FEF718FB20466E
:101C10000CB070BD0624FAE72DE9F84F8846002184
:101C20000446FEF72FFC054640B9D4F820A0A3696E
:101C3000AAF10202934204D8C8F800302846BDE851
:101C4000F88F6379012B17D10227064639462046C3
:101C5000FEF730FE431C34D0012834D000B90136E1
:101C6000236A0137BB42F1D8C8F80060237AA66125
:101C700043F001032372E1E7E16A0746064604F1F7
:101C80003C0937B9204601F1010BFEF7ABFBE0B987
:101C900059466379022B09EB07000AD139F807305E
:101CA00003B901360237BAF1010AC7F30807E8D1D0
:101CB000DAE7FEF771FA30F0704308BF01360437F7
:101CC000F1E70125D0E70225CEE70546CCE7F0B5E0
:101CD0000E4699B002210546FEF7D4FB044688B9AA
:101CE000314668460095FFF709FA044650B99DF859
:101CF0002B3098063BD4190639D49DF80670FA07A4
:101D000003D50724204619B0F0BD07996879FEF77E
:101D1000C9FDFB0606460BD46846FEF7FEFF0446E7
:101D20000028EFD1D6B92846FEF771FD0446E9E751
:101D3000EB698342E5D00E9021460CA80C95FEF786
:101D400089FF04460028DDD101460CA8FEF702FFFA
:101D500004460028D5D00428D4D1DDE70246314618
:101D60000098FEF7FDFD04460028CBD1DBE70624F2
:101D7000C8E72DE9F0410E468CB002210546FEF77A
:101D800081FB0446002868D1314668460095FFF77C
:101D9000B5F9044600286ED004285ED19DF82B10BA
:101DA00011F0200169D12846FEF710FE06460028F2
:101DB00057D0012857D0431C5C425C4148F0E6FAFA
:101DC0000746002C51D131462846FEF7F6FC044662
:101DD00000284AD14FF02033EB632B64C5F8433021
:101DE0002E2385F83C30102385F84730394605F11D
:101DF000520005F13C04FEF7D1F93246214628464F
:101E0000FEF7DFF905F15C031A4651F8040B42F8BE
:101E1000040B9942F9D12E23029A85F85D302846A9
:101E20004FF00108FEF7CDF985F807806846FFF707
:101E30003FF80446C8B9079839461630FEF7AEF9A0
:101E4000324607992846FEF7BCF9079B1022DA7242
:101E500085F80780FEF7DBFC044620460CB0BDE8A1
:101E6000F0810724AAE70224A8E700223146284689
:101E7000FEF776FDF1E70824EFE70624EDE7F0B57D
:101E80000D46A1B0022104461746FEF7FBFA0028D2
:101E900077D1294608A80894FFF730F9002870D1B7
:101EA0009DF84B3013F0A00F6DD10F9B6D4603F1E1
:101EB0002006186859682A4603C20833B3421546FB
:101EC000F7D108AE0FCE14AD0FC50FCE0FC596E8F3
:101ED0000F0085E80F00394614A8FFF70FF948B93D
:101EE000169A0A9B9A4203D1189A0C9B9A4203D0E5
:101EF000082046E0042844D114A8FEF7D9FF0028A2
:101F00003FD11B990DF10D0301F10D020DF11D00E3
:101F100053F8045B42F8045B8342F9D118881080BF
:101F20009B7893709DF80B30DA0658BF43F020037E
:101F30000125CB72E571CB7ADB061BD50A9A169B7D
:101F40009A4217D06079FEF7ADFC01462046FEF7B5
:101F50002DF90146C8B12046FEF744FA88B994F835
:101F60005D302E2B06D1169A04F15C012046FEF757
:101F700028F9E57108A8FEF7D0FE10B92046FEF753
:101F800046FC21B0F0BD0620FBE70220F9E7000087
:101F9000F0B595B0064601910221FEF773FA0446AA
:101FA000002833D102AF4FF02033029305467B6007
:101FB000C7F80730019B1B781F2B20D89DF80830ED
:101FC000E52B22D01DB16B1EFA5C202A30D00021F7
:101FD00008A808960A91FEF73DFE0446B0B9012113
:101FE00008A8FEF7B7FD70BB0F9A1DB33B4603CBA5
:101FF0001060516019889B78937211811CE001A8D0
:10200000FEF7BBF9B0F5803F03D30624204615B098
:10201000F0BD4DF043F840F2B5114DF00BF800283B
:10202000F3D01D4A12F8013B83B39842FAD1ECE792
:102030001D46C7E7E52313700123F3713046FEF711
:10204000E6FB0446E2E70428FBD1002DDED00121A7
:1020500008A8FEF740FE04460028D7D120220146FA
:102060000F983DF065F90F9B0822DA720F9ABDE7D1
:10207000092DCAD814AB2B44020A03F8482C0135A9
:1020800014AB2B44013503F8480C93E7FF28EFD835
:102090000A2DF5D9B9E700BF214206082DE9F04F16
:1020A000D0F800808BB01C46002343710291037965
:1020B0000193154605210DF11F02404600F020FB5B
:1020C0009DF81F30DA0700F17D825E0700F17C8207
:1020D00008AA0321404600F013FB30B9089A531EAA
:1020E000B3F5004F01D21A4201D0012308935DB12C
:1020F0005A4BA5F500729A4203D913200BB0BDE8E4
:10210000F08F6B1E2B42F8D1002C00F05F82149BE5
:10211000B3F5007FC0F05A82019B002B62D00123EF
:1021200000222146404600F0C7FA08B10120E5E749
:10213000B4F8FE214AF655239A4201D00E20DDE77D
:10214000019B04EB031202F5D77392F8B221002A27
:10215000F4D003F10800FEF71FF8074603F10C0066
:10216000FEF71AF80990DDF824B0BBF1150FE5D998
:10217000B5F5813FC1D2029B13F0020305934FEAEC
:102180005522029B41D003F00703022B00F02C8262
:10219000029BD80740F12882002A3FD130484FEAFD
:1021A0001B35012630F8023B0BB1AB4234D940F667
:1021B000F573BBFBF6F59D429BBF05EB450501356D
:1021C00002356D088CBF6D0003354FF0200305F21A
:1021D000FF1504938CBF4FF002094FF001096D0AFF
:1021E000012324E209AA0121404600F089FA0028CF
:1021F0009CD1029B13F0080F099B14BF00273F27B7
:10220000BB429BD3DB1B0993ADE7D907C4D474E76A
:102210005200F0E11346F5E17600C3E71646C6E743
:10222000B9F1020F1ED103994FF6F570814208D91A
:10223000002A40F0D5817600402E00F230823246EE
:10224000AAE7039940F6F570814213D8002A7FF47B
:1022500075AF7200802A9FD970E700BF00FEFF00B3
:1022600034420608039940F6F57291423FF666AF94
:102270004FF001094FF400720021204605933DF014
:1022800057F8D34A059B1168A373C3F30723B9F129
:10229000030F2160E373516861604FF00103237401
:1022A0001189927AA2720CBF00234FF400730222AC
:1022B0001B0ABBF5803F218122736673A37480F0F3
:1022C0001D8184F813B0CBF3072B84F814B0F823E6
:1022D00063753F2323764FF0000BFF2384F819B07A
:1022E000A37684F81BB0394604F11C00FDF756FFB5
:1022F000B9F1030F40F0088148F048F8014604F1B5
:102300004300FDF74BFF294604F12400FDF746FF8B
:10231000022384F82C30012384F83030062384F81B
:102320003230802384F84030292384F84230A94B8E
:1023300084F82DB084F82EB084F82FB084F831B032
:1023400084F833B004F1470203F1100153F8040B91
:1023500042F8040B8B42F9D119889B7893704FF0A7
:102360005503118084F8FE316FF0550384F8FF3176
:102370003A4601232146404600F0ADF98346002845
:102380007FF4D4AEB9F1030F3ED10123BA1D21462B
:10239000404600F0A0F94FF40072594620463CF048
:1023A000C7FF5223237063706123A37084F8E73161
:1023B000039B41227221E27084F8E41184F8E51154
:1023C00084F8E621591E04F5F470FDF7E7FE0223B8
:1023D00084F8EC314FF0550384F8FE316FF055036B
:1023E00084F8FF31FA1D0123214684F8EDB184F809
:1023F000EEB184F8EFB1404600F06DF90123FA1810
:102400002146404600F067F9149B23F4FF7222F046
:102410000102002120463CF08BFFB9F1030F40F090
:102420009080F8232370FF236370A370E3702371FF
:102430006371A371E37123726372A3720F23E3725A
:10244000149B5B0A0393039BAB4228BF2B46214698
:10245000524640469B4600F03EF9014600287FF474
:1024600065AE4FF4007220463CF062FFB5EB0B0501
:10247000DA44E8D1049BB9F1030F18BF1E46039B51
:10248000B34228BF33465246214640461D4600F01F
:1024900022F900287FF44AAE761BAA44EFD1B9F1A5
:1024A000030F58D0099BB3F5803F56D2B9F1020F04
:1024B0000CBF04250125019B002B50D000220123D5
:1024C0002146404600F0F8F8024600287FF42EAE80
:1024D000019B04EB031383F8B251012321464046CC
:1024E00000F0F9F800287FF421AE002211464046A2
:1024F00000F006F9003818BF0120FFE5594604F145
:102500002000FDF74BFEE2E647F040FF014604F1F4
:102510002700FDF743FEC5F30723E375802384F806
:102520002430292384F826302B4BA57504F12B0287
:1025300003F1100153F8040B42F8040B8B42F9D15C
:102540000AE7B9F1010F2549204618BF6FF00701CE
:10255000FDF724FE74E70C25ADE70625ABE7029BEB
:102560001B07C2D401994FF4007220463CF0E0FEF4
:10257000099A84F8C251552384F8FE31AA2384F8BD
:10258000FF313A4443F6C163B2FBF3F2FE2384F811
:10259000C331930843F03F03012684F8C43184F823
:1025A000C521394604F5E37084F8BF6184F8C06141
:1025B000FDF7F4FD099904F5E570FDF7EFFD019ACB
:1025C00033468BE7032099E50A2097E5112095E52E
:1025D000604106086C41060880410608F8FFFF00CC
:1025E000059B002B3FF4AAAD002A7FF413AE3048C0
:1025F0004FEA5B45012230F8023B1BB1AB427FF64C
:1026000007AE0023BBFBF2F02A4E8500A0F57F4009
:10261000F63805F20725B0424FEA55253FF68EAD54
:1026200016461A46002304934FF00309202304980A
:10263000DDF820E007EB030A05EB000CD4440EF1B3
:10264000FF306044CEF1000E00EA0E00A0EB0C005B
:10265000B9F1030F06BF1B1882442D18C7EB0610F3
:102660008444E345FFF46AAD0498ABEB0000C01A64
:10267000B9F1030FA0EB0500B0FBF6F003907FF477
:10268000CFAD03994FF6F57081423FF6F3AD002AC6
:102690007FF454AD012E7FF651AD7208A4E7059B7F
:1026A000002BA4D1802E3FF649AD32467FE500BF16
:1026B00042420608FFFFFE0F10B50C4611461A46AF
:1026C00038B1234604303CF0DBF8003818BF012055
:1026D00010BD0420FCE710B50C4611461A4650B157
:1026E000234604303CF0F4F810F11E0F05D00038FA
:1026F00018BF012010BD0420FCE70220FAE700000B
:1027000070B50D4614460646002833D0244A01F021
:102710000703D15C00292FD0002204303CF004F9DB
:10272000062D27D8DFE805F008050A162619190036
:1027300006202AF0A7FD2060002070BD062805D1E4
:102740004FF4007323802388B360F5E72AF09AFDE5
:102750002080F8E701232360EEE7062801D0430834
:1027600006D1336A002B0CBF042300232370E3E758
:102770000123FBE70420E0E7062DFBD801A353F873
:1027800025F000BF3927000831270008412700083D
:1027900055270008752700086327000863270008ED
:1027A0004CA80508086833F03AB90000022970B552
:1027B000044615461E4613D15368012B0AD0022B3E
:1027C0000CD01BB91168201DFFF72DF9A3692B60F0
:1027D000002070BD81692B681944F4E70169FAE7AC
:1027E00001290AD10430FFF72AF80028F0D0084B5D
:1027F0001B5C33604FF0FF30EBE7042906D14368E0
:10280000002BE5D00430FFF751F8EEE71623F0E790
:102810008CA8050837B51D46043001AB1446FEF7F9
:102820004EFF38B1064B1B5C2B604FF0FF34204647
:1028300003B030BD019BA342F9D01C23F4E700BFD5
:102840008CA8050813B51C46043001ABFEF7A1FEA9
:1028500030B1044B1B5C23604FF0FF3002B010BD61
:102860000198FBE78CA805082DE9F84381465068DC
:102870000E46904630F026FC2E4A2F49013800249F
:1028800010F8013FD3B92C201DF014FC0746054673
:1028900047F8046BD8F8000030F014FCE3B20246AD
:1028A000394609F14400FEF7ADFD0646C0B328469F
:1028B0001DF01AFC214B985D29F0DEFE782BDFD845
:1028C000712B08D8612B24D0622B25D02B2BD7D18C
:1028D00044F00304D4E7723B062BD1D801A555F888
:1028E00023F000BF01290008812800081D290008E5
:1028F0008128000881280008072900080D29000800
:1029000044F00104BCE744F00A04B9E744F00604CB
:10291000B6E744F01204B3E70E46B1E71646AFE758
:10292000E30603D529693846FFF77DF82846BDE858
:10293000F88300BFDCA80508A0A805088CA8050836
:1029400030B587B0044603AD084611461A46064B1B
:102950000093019503232AF09DF92A462146002081
:10296000FFF782FF07B030BD74A805081FB5062326
:10297000CDE901120349039301AAFFF775FF05B0E2
:102980005DF804FBDCA8050813B504460846019170
:102990002AF0ECFB019B04490246204602B0BDE848
:1029A000104000F099BF00BF54A805082DE9F74F6B
:1029B000062907469DF8300010D8012905D93F2384
:1029C00007F8013B00233B7001E00029FAD10129FF
:1029D00094BF0020012003B0BDE8F08F10EE104A34
:1029E000002C3C4622DAB4EE400AF1EE10FA1DD675
:1029F0002D2004F8010BB1EE400A9FEDC57AF0EEF0
:102A0000C07AF4EE477AF1EE10FA02F0200912DDF6
:102A100089F04903237089F0460589F04E036370FD
:102A2000E01CA57000230370C01BD4E70028E4D08D
:102A300004F8010BE1E7B4EE400AF1EE10FA08D712
:102A400049F04E0389F0410523706570E01CA370C6
:102A5000E8E7002B42F02006B8BF0623672E02D11C
:102A6000002B08BF0123E01B091A10EE100A0028F2
:102A700001F1FF324CD1662E3BD1581C9042A8BFC9
:102A8000CB1E4FF000085A1C66214046454665297A
:102A900023EAE37A40F00C810AF10102002301935A
:102AA0004FF02E0BB2EE047A019B9A4200F309819B
:102AB000662E40F03781954240F39481B8F1000FC3
:102AC00013D00A2195FBF1F393FBF1F201FB1232D3
:102AD00001FB135349F045093032303384F800903C
:102AE00084F80180A270E370043400232370E01B9B
:102AF00071E7581D9042A8BFCB1F652E31464FF09D
:102B0000000240F0CF804FF02B0810461546BEE77C
:102B1000B0F17E5F6ED2DFED7F7ADFF80082DFF802
:102B200000C2B4EEE70AF1EE10FAACBF4FF0310A82
:102B30004FF0300A06204FF0200E0025B8EC017A45
:102B4000B4EEC07AF1EE10FAC2BF9CED007A754483
:102B500020EE070A01384FEA6E0E0CF1040CEDD19D
:102B600010EE100AB0F17E5F29D2B4EEE70AF1EE62
:102B700010FA1FDB002D14BF4FF02D084FF02B086B
:102B8000B7EE000A662E03D0672E29D1042D27DC6C
:102B9000672E04BF05F1FF301B18581C9042A8BFD8
:102BA000CB1E84F800A06BB901341A4698464FF04A
:102BB000FF3057E0F2EE047A20EE270A01354FF09D
:102BC0002D08DFE72E22627030211A460234013DC3
:102BD0006AD00AB99046EAE704F8011B013AF6E721
:102BE0008A1F9A4202DC672E60D0CB1F314600223A
:102BF00010464CE7DFF82881DFF820C106204FF0AF
:102C0000200E0025F8EC017AF4EEC07AF1EE10FA0D
:102C10009EBFDCED007A754420EE270A01384FEAAA
:102C20006E0E0CF1040CEDD1FDEEC07A17EE900A99
:102C30000928C2BFDFED387A013520EE270A662E5B
:102C400012D1954219DA59190131914205DB521B13
:102C5000012AA2F1020308BF0023EA180132284624
:102C60004FF00008662112E7652E06D0672E0ED0C1
:102C7000314600224FF02B08BAE78A1F9A4200DC47
:102C8000CB1F00224FF02B0810466521FFE6181DD0
:102C9000904200DB8B1F9D4201DB6721E9E76A1C44
:102CA0009B1ADAE7904630E7A84680E713469DE78F
:102CB00067297FF4F3AE002BDABF01229246524619
:102CC000ECE6FDEEC07A04F1010E17EE903A002B0F
:102CD000A8BF03F1300C019BACBF5FFA8CFC4FF036
:102CE000300C984284F800C006D1BAF1000F03D02E
:102CF00004F1020E84F801B0F8EEE77A019B30EEA1
:102D0000670A013320EE070A01937446CCE600BF40
:102D1000FFFF7F7FF8FF7F3FCDCCCC3D4C530508B4
:102D200064530508F1EE047AB4EEE70AF1EE10FA06
:102D300038DB621E302013782E2B934602F1FF32CF
:102D4000F9D0A3F1300CBCF1090F3DD90BF1010B07
:102D50009BF80030302B25D19BF801202E2A3FD143
:102D600066293DD0B8F12D0F8BF800208BF801308B
:102D700034D1013D08BF4FF02B085C450BF1010039
:102D8000ABEB0401A0EB04003CBF00210120A4EB4D
:102D90000B02214438BF002220443CF0B5FA312315
:102DA0008BF80030672E7FF489AEBAF1000F3FF444
:102DB00085AE23461C46013B14F8012C302AF9D07D
:102DC0002E2A08BF1C4679E6392B03D001338BF835
:102DD0000030BDE7BB455070ADD1B9E70135CCE758
:102DE0000134CAE7F1EE047AB4EEE70AF1EE10FA24
:102DF0009FDA63E608B5044631B1054B8A6B036080
:102E0000096800232CF06CFA20461DF021F900BF60
:102E1000B86305082DE9FF471E460192451812B117
:102E2000023A222A34D80446AC42274639D214F852
:102E3000010B1EF0CDF980460028F5D13B782B2BF5
:102E400029D12746E91B384601AA27F056FF074437
:102E5000B9460024A9454B4626D3B8F1000F00D04F
:102E60006442640044F00104BB4209D01F46AF42F3
:102E70003B4641D2187801371EF0AAF90028F6D156
:102E80002049019A20482CF0EFF93146FFF7B2FFB4
:102E90001E4829F0FFF92D2B04BF27464FF00108EB
:102EA000D0E74FF00008CDE719F8012BA2F1300A66
:102EB000BAF1090F09D95F2ACCD042F02002A2F161
:102EC00061011929C9D8A2F1570A01995145C4D9FC
:102ED000204636F04BFC28B9019B03FB04A494EA7E
:102EE0004403B7D5019B03974246E91B03A82DF085
:102EF000C9FB039B0446B7E7C2D1204604B0BDE836
:102F0000F08700BF91530508A86405087C530508A5
:102F10002DE9F04F2DED028B83B00446DDF83880AB
:102F2000019391464618B442254680F031812878B5
:102F30001EF04EF9013407460028F4D12B782B2BD4
:102F400009D125468246B4420CD30023DFED938A93
:102F50001F4618468BE02D2B03D125464FF0010A62
:102F6000F1E782462B7843F02003692B32D1AB1C6A
:102F70009E4240F205816B7843F020036E2B40F0B7
:102F8000FF80AB7843F02003662B40F0F980EB1D07
:102F90009E4205F103041AD9EB7843F02003692B14
:102FA00015D12B7943F020036E2B10D16B7943F0B0
:102FB0002003692B0BD1AB7943F02003742B06D18E
:102FC000EB7943F02003792B01D105F108049FED43
:102FD000748A14E06E2B2AD1AB1C9E4240F2D08042
:102FE0006B7843F02003612B40F0CA80AB7843F04C
:102FF00020036E2B40F0C4809FED6A8AEC1CBAF16E
:10300000000F01D0B1EE488AA54209D0B442234650
:1030100080F09880187801341EF0DAF80028F5D195
:10302000614962482CF08AF84146FFF7E3FE00232D
:10303000DFED5A8A9FED5E7A0093AC46184619463A
:10304000F2EE046A644614F801EBAEF1300BBBF10A
:10305000090F38D8022922D1564A904202DC0A22AE
:1030600002FB00B0A6425ED8009A02B1404203447F
:1030700013F1250FBEBFDFED507A253368EEA78A26
:1030800013F1090F53D35B4200EE903AB2EE040AFB
:10309000F8EEE00A3DF0D2F888EE808AAFE7F4EE71
:1030A000C78AF1EE10FA0BD507EE90BAF8EEE77A80
:1030B0000129E8EEA67AF0EE678A31D1013BD1E72B
:1030C00029B90133CEE721B9BEF12E0F03D1012179
:1030D000C8E7022917D04EF0200BBBF1650F12D1C3
:1030E000A64258D99CF801102B2905D10CF10204F5
:1030F000B44295D00221B5E72D2913D101220CF15C
:1031000002040092F4E7B9F1000F04D04EF0200B56
:10311000BBF16A0F09D0BEF15F0FA3D06446A3E7ED
:1031200000219FE70221A4468CE74F469CE707EE6B
:10313000903AB2EE040AF8EEE70A3DF07FF828EE86
:10314000808A5CE77FF46CAF57B19FED140AF0EE14
:10315000480A03B0BDEC028BBDE8F04F2BF0A2B8DB
:10316000019B23B1DFED0D0AB0EE480AF1E7B0EEA6
:10317000480A03B0BDEC028BBDE8F04F2CF0CEB98D
:10318000BAF1000F3FF44CAF9FED048A2C4639E7AB
:103190004FF0000AD9E63FF443AF65E700000000B6
:1031A0000000807F0000C07F9D530508A8640508CB
:1031B000EC78AD6064666606EA1C080208461146B3
:1031C00040F012BE37B50546084601913CF0EAF8DA
:1031D000044620B102466B6801992868984720464A
:1031E00003B030BD2DE9F74F89469DF830101746E2
:1031F0000D9A11F0DF0F0646A2EB07023DD03029F1
:1032000025490CA813BF804688464FF0100A4FF09E
:10321000010A13F0800535D002EBD2746510A2EBE1
:103220006404002D35DDAB46DA45524673683068DC
:10323000A8BF5A46414601929847019AABEB020B50
:10324000BBF1000FF0DC2FB1736830683A46494695
:1032500098473D44002C0CDD2544A2455746A8BFA5
:103260002746736830683A464146E41B9847002C6D
:10327000F3DC284603B0BDE8F08FDFF820804FF084
:10328000100AC6E713F0010401D11546C9E7144638
:10329000D9E70025D7E700BF5D4405084C44050881
:1032A0002DE9F04389B006460020119D9DF8488025
:1032B000139F8DF80F000AB381421ADA2D228DF880
:1032C0000F204942109A08ACA2F10A000DF1100932
:1032D000B1FBF3FC03FB1C12092A8CBF121830321D
:1032E00004F8012D4C458E4661460ED07345EFD94A
:1032F0000BE0A80727D52B228DF80F200029E1D15C
:1033000030238DF81F300DF11F0415F040099DF892
:103310000F301CD023B30122CDE900822B460DF1E2
:103320000F013046FFF75EFF013F814608AACDE955
:1033300000872B46121B21463046FFF753FF4844B7
:1033400009B0BDE8F0836A07D8D52022D4E7002B66
:10335000ECD004AA9442E9D904F8013C013CE5E729
:103360009946E3E72DE9F04F93B01E469DF874307F
:103370000793CB07DDE91E871C9D81460C469246CC
:103380000BD4880703D109687F4B994205D02046AA
:1033900029F078FF400040F0010415F0810306D1C8
:1033A000079A302A03D1B845B8BFB8461F46204611
:1033B0002DF07BF800280DF1280B18DBA90712D59A
:1033C0002B238DF828300DF12901EB06F6B21DD51F
:1033D000BAF1020F0DD10B46302003F8020B701C1E
:1033E0004870194612E06A0701D52023E9E75946DB
:1033F000EBE7BAF1080F62D1A8054FF030030B706C
:1034000045BF06F10E034B7001310231002315F068
:10341000200FA1EB0B020B700CBF19462C21012FC2
:103420000EA8C8BF45F0400506920B9015F040026B
:103430004FF01000CDE90C03CDE902618DF8273083
:10344000059246D0CDE900A30DAA23460CA90BA8EE
:103450002CF0FAFE03782D2B824606D18DF827300A
:103460000D9B013B00F1010A0D93012F40F3848075
:103470000D9C059BBC42B8BF3C462BB19DF8273044
:1034800003B10134069B1C44A0452DDD15F001035A
:10349000A8EB040429D126461C4625F001054EB1AF
:1034A000202300930023019638491A464846FFF727
:1034B00099FE0646059BD3B9302307933AE0BAF14B
:1034C000100FA3D10B46302003F8020B06F11700B2
:1034D00086E70AABCDE900A30DAA23460CA90BA8E9
:1034E0002CF0B2FE8246C0E700240026D5E7302348
:1034F00007939DF827305BB100230122CDE900320C
:103500000DF127014846FFF76DFE08F1FF3806442C
:10351000069B63B100230122CDE900325946069A89
:103520004846FFF75FFE069B0644A8EB0308012F01
:10353000D8BF4746079B00930D9A01972B465146EB
:103540004846FFF74FFE06444CB12023009300236A
:103550000E4901941A464846FFF744FE06440B986C
:103560000EAB984201D01CF0BFFD304613B0BDE851
:10357000F08F00242646BCE7059B002BF9D11C46A2
:103580001E464746D6E700BFF8690508050006084D
:103590002DE9F04316468BB0B207DDF84890074698
:1035A00098463DD416F0040F0CBF0023202300934F
:1035B0000A46139B202102A8FFF7F8F9F3050446F9
:1035C0000DD5431C1F2B0AD80AAA1444252204F83F
:1035D000202C0AAA1A44002102F8201C1C4616F0CE
:1035E00040051FD09DF808302F2B4FF000031BD84B
:1035F000012202A9CDE900323846FFF7F3FD09F1B7
:10360000FF390546013C0DF10901CDE9008933463A
:1036100022463846FFF7E6FD28440BB0BDE8F083AC
:103620002B23C4E702A9F0E702A91D46EDE700003D
:103630002DE9F04F824689B0144600260B461D4600
:1036400013F8012B82B9A94211D30B78002B00F09B
:103650003B81013120234FF000080A4612F8015B3C
:103660007DB94FF00A0C2AE0252AE8D1EBE76F1A62
:10367000DAF80430DAF800003A4698473E44294622
:10368000E3E72D2D03D148F001081146E5E72B2D86
:1036900002D148F00208F8E7202D02D148F00408D2
:1036A000F3E7212D02D148F00808EEE7302D21D1B3
:1036B00048F040082B46E8E70CFB0525303D0F4657
:1036C00011F8012BA2F130000928F5D92E2A41D199
:1036D0007A782A2A10D000204FF00A0C0F4611F8F1
:1036E00001BBABF13002092A09D80CFB00BBABF1DE
:1036F0003000F3E70025B4E754F8040B023720EA62
:10370000E07B3A786C2A08BF013797F80090B9F14E
:10371000000F00F0D980B9F1780F6AD8B9F1570FCE
:103720001BD8B9F1470F61D8B9F1440F61D90734FB
:1037300024F00704F4E8020104934BF0B3FECDE952
:10374000005B00EE100A049B424649465046FFF7D4
:103750001FFF62E04FF0FF3BD3E7A9F15802202A98
:1037600047D801A151F822F097380008F337000834
:10377000F3370008F3370008F3370008F337000881
:10378000F3370008F3370008F3370008F337000871
:1037900005380008273800087B3800082F37000854
:1037A0002F3700082F370008F3370008F3370008D9
:1037B000F3370008F3370008F3370008F337000841
:1037C000F3370008F3370008B93800083B38000821
:1037D000F33700085F380008F3370008973800080F
:1037E000F3370008F337000897380008B9F1500F95
:1037F00062D0DAF80430DAF800000122394698473E
:1038000001360BE054F8042BCDE9003543463AB1BC
:103810002F4904225046FFF7E5FC0644791C0DE7CA
:103820002C490522F6E754F8042B8DF81C20CDE92D
:1038300000350122434607A9ECE707A954F8040B19
:1038400004931DF098FABBF1FF3F049B014601D1A0
:10385000DDF81CB0CDE900355A464346DAE7BBF146
:10386000FF3F54F8041BF5D10846059304913BF043
:1038700099FDDDE904138346ECE7CDE902356123C8
:103880000093CDF804800A23012254F8041B50460B
:10389000FFF706FDC1E729F00F0209F101010F3A18
:1038A00001F00601D2B2CDE90235CDF804800092D4
:1038B000C1F110030022E8E7CDE90235612300934E
:1038C000CDF804801023F5E7304609B0BDE8F08F4D
:1038D000384405083D4405080EB403B503AA52F860
:1038E000041B0192FFF7A4FE02B05DF804EB03B0E5
:0438F000704700001D
:020000040802F0
:10000000024B1A6902601861002070471800002036
:10001000024B1A6912681A61704700BF180000206D
:10002000C460056146618761C0F81C80C0F82090FB
:10003000C0F824A0C0F828B0C0F82CD080ED0C8BFC
:1000400080ED0E9B80ED10ABC0F808E0FFF7D8BF45
:10005000104908B50B690BB923F030FB1A685860DA
:100060000A611846C468056946698769D0F81C802A
:10007000D0F82090D0F824A0D0F828B0D0F82CD018
:1000800090ED0C8B90ED0E9B90ED10ABD0F808E04E
:10009000012070471800002010B50021044600F030
:1000A000BFFA18B914B120460CF0E0F810BD0021D9
:1000B00000F0B6BA10B50121044600F0B1FA18B943
:1000C00014B120460CF0D2F810BDFFF7E5BF10B513
:1000D00001220C4600F0B8FB18B914B120460CF010
:1000E000C5F810BD00F0B0BB00F070BB2DE9F043C7
:1000F0002A4C00254FF0030CD4F8F06100210131A7
:1001000043189A0803F00303B25C5B0042FA03F35E
:1001100003F00303022BF2D0D4F8FC31090103EB06
:1001200000104FEA910E81B300EB8E0E03681A07A0
:1001300028D1D4F8FC219A4224D89A1AC2F301118A
:100140004F00D4F8001299424FEA92164FEA121269
:1001500018D9D4F8F08118F8069049FA07F101F09F
:10016000030101290ED10CFA07F305F582773F2D23
:1001700043EA090308F806309ABF24F8172001352E
:10018000C4F8041204307045D0D12DB1013D05F5FD
:10019000827334F81300AFE7BDE8F0831800002045
:1001A00030B51C4CD4E97E53C01AC109C0F3021EFD
:1001B0006B5C012202FA0EF223EA02036B54D4F8BC
:1001C000942283094FEA101CB2EB901FD4F8F0017F
:1001D00088BFC4F89432C15C4FEA9C0E0CF0030354
:1001E00003255B0005FA03F321EA030300F80E3050
:1001F0000CF1010CD4F8F0014FEA9C0E0CF0030353
:1002000010F80E105A0041FA02F202F00302022A1C
:10021000E7D030BD1800002021F00F0138B5154A95
:10022000154D0C1AE400A2FB0424640A034623447F
:10023000C5F8F8312246A1EB8413C5F8001200215D
:10024000C5F8FC31C5E97C041FF072F8A200073242
:10025000D2080021D5F8F8011FF06AF800234FF406
:1002600080314FF0FF32C5E9A332C5F89432C5F8AA
:10027000881238BDF32C23FA18000020034AB2F884
:1002800088320133A2F88832704700BF180000207E
:10029000034AB2F88832013BA2F88832704700BFA7
:1002A00018000020034BB3F88802003818BF012063
:1002B000704700BF18000020F8B51D4DB5F8883212
:1002C00000220133C5F88C22A5F88832C5F8042233
:1002D0002C1D05F5E876032754F8043F1A071AD1B8
:1002E000D5F8FC01834216D3D5F80012181AC0F3D2
:1002F00001128B424FEA901C4FEA42024FEA101063
:1003000009D2D5F8F01111F80CE04EFA02F303F01F
:100310000303012B02D0A642DED1F8BD07FA02F298
:1003200042EA0E0201F80C20FFF7E0FEF3E700BFFF
:1003300018000020A1B32DE9F8461A4E8A46051F81
:100340000024032755F8043F1A0704F101041AD1C9
:10035000D6F8FC01984216D8181AC0F301124FEAD9
:10036000420CD6F800229A424FEA901E4FEA101033
:1003700009D9D6F8F01111F80E9049FA0CF303F0F0
:100380000303012B03D0A245DCD1BDE8F88607FAB0
:100390000CF242EA090201F80E20FFF7A7FEF2E78D
:1003A000704700BF180000202DE9F04F584ED6F8D6
:1003B000F431D6F8042285B09800CAB10025C6F8F9
:1003C0000452002844D00024D6F8F011A20804F00A
:1003D00003038A5C5B0042FA03F303F00303032B7D
:1003E00041D001348442EFD3D6F80432002BE6D159
:1003F00070B34FF0000C654603274FF001094FF032
:10040000020804E0012B4CD00135854220D2D6F8F9
:10041000F0E14FEA950A05F003041EF80A20640093
:1004200042FA04F303F00303022B0EEB95012AD0EA
:10043000032BE7D108FA04F422EA04020EF80A209A
:10044000D6F8F4310135980085424FF0000CDED328
:10045000B6F888320022013BC6F89422A6F888320A
:1004600005B0BDE8F08F2046FFF740FED6F8F43126
:100470000134B4EB830F4FEA8300A5D3D6F80432DE
:10048000002B9CD1B4E7BCF1000FBDD007FA04F4F7
:1004900022EA04020A70D6F8F4314FF0010C9800F9
:1004A000B2E7D6F8F801EB0805F0070B10F803E007
:1004B000019300EBD50C4EFA0BF0C307E6D5D6F846
:1004C000FC012901415800EB0510A9B102AAB12194
:1004D0000BF0E8F8DDE9013242B10CF015F9DDE985
:1004E00002010CF0E7F80CF025F9019BD6F8F82191
:1004F00012F803E002EB030C09FA0BFB2EEA0B0ED9
:100500008CF800E0D6F8F01111F80A205144BDE74C
:1005100018000020054BB3F8882200210132C3F8EF
:100520000412A3F88822FFF73FBF00BF1800002085
:100530003A4A2DE9F047D2E97F410023091BD2F85E
:10054000F0610160D2F8F411C0E90133C0E903336E
:10055000C0E905334FEA810C1D469E461F461C46E6
:100560001A4699461946984616F8093049000B4133
:1005700003F00303012B47D0022B41D0002B38D0CE
:10058000013294450ED04FEA920902F0030116F8A9
:1005900009304FEA410A43FA0AF313F0030301D08A
:1005A000012BE1D1012C11D0022C02D14169013182
:1005B00041618169A14238BF846194450FD0012B0C
:1005C00026D04FEA920902F00301CDE7016901311B
:1005D00001618169A14238BF84619445EFD14745EB
:1005E00000D9C7602D014FEA0E13C0E90153BDE8E1
:1005F000F0870EF1010EC0F808E001371C46BFE796
:10060000013545600134BBE7013545601C46B7E75D
:10061000B84501D2C760B8460027D2E718000020CD
:100620000F302DE9F843060951D0674CB4F88832F1
:10063000002B4CD1B4F88A32002B0D460CBF4FF082
:10064000010E4FF0000E46D1D4F89402D4F8F471A4
:10065000874239D9D4F8F0C1411E614400221AE022
:100660000132964252D913F00C0F1ED1013296423C
:1006700040F2A08013F0300F1CD10132964240F2BC
:100680009C8013F0C00F1AD10132964240F298803C
:100690000130B84218D211F8013F13F0030FDFD038
:1006A00013F00C0F4FF00002E0D013F0300F4FF0BA
:1006B0000002E2D013F0C00F4FF00002E4D001308E
:1006C000B8424FF00002E6D3BEF1000F13D0002372
:1006D0001846BDE8F883D4E9A3239A42B4D327F09F
:1006E000E9F9D4F89402D4F8F471B84238BF4FF065
:1006F000010EAFD3EBE727F0DDF9D4F89402D4F87C
:10070000F47187424FF0010EA4D8E0E78000811A0F
:10071000012A01F1010703D1431C9B08C4F894325C
:100720004FEA970E07F003031CF80E904FEA4308B8
:100730000123023103FA08F343EA090388420CF863
:100740000E3013D34FF002084FEA910CD4F8F0E1C9
:1007500001F003031EF80C905B0008FA03F301316B
:1007600043EA090388420EF80C30EDD2D4F88C32FB
:10077000D4F8FC813344C4F88C3208EB071312011F
:10078000184600211EF0D4FDEA074FEA071603467B
:100790009ED50022D4F8F80148F80620F908012275
:1007A000445C07F0070702FA07F727434754184647
:1007B000BDE8F88380000130A9E780000230A6E799
:1007C00080000330A3E700BF18000020034BB3F8FC
:1007D000882212B908B1FFF7E3BC70471800002067
:1007E00010F00F021CD11749D1F8FC31834218D800
:1007F00010B4D1F8004284420ED9C31AD1F8F041A6
:100800009909C3F30110615C4000014101F003014B
:1008100001294FEA131306D010465DF8044B7047C8
:1008200000221046704701329918880801F0030130
:10083000205C490040FA01F101F003010229F2D0E5
:100840001201E9E7180000202DE9F84F8946064615
:10085000002800F0A180554DB5F88842002970D0DD
:10086000002C70D1D5F8FC11D5F8F431411A4FEABB
:10087000111E0EF1010709F10F0CB7EB830F4FEAC0
:10088000830A4FEA1C1C234680F08C80D5F8F001C7
:100890004FF00108BC0807F0030B045D4FEA4B0B57
:1008A00044FA0BF404F00304022C50D024B90133B1
:1008B00003EB080464454CD3C4453ED04DD34344B8
:1008C00063451ED2002A3ED0D5F8F831C9090EF092
:1008D000070E595C41FA0EF1484601F00101FFF79D
:1008E0009FFE044678B34FEA081231461EF0DCFC46
:1008F000B5F8883213BB3046FFF752FC2046BDE8FE
:10090000F88F0EEB0802E64496450ED902219008B6
:10091000D5F8F04102F00303275C5B0001FA03F312
:1009200001323B4396452354F1D1ACEB080212014E
:10093000002106EB08101EF0FBFC34462046BDE803
:10094000F88F002CD8D000242046BDE8F88F08F19D
:1009500001080137BA459DD1AEE7F4446046C6446C
:100960004FF003098708D5F8F01100F00303CC5DC0
:100970005B0009FA03F3013024EA03037045CB5509
:10098000F0D1D5F89432B3EB9C0F4FEA9C02D4D946
:10099000C5F894223446D1E701464846BDE8F84FF1
:1009A000FFF73EBE4FF0010886E700BF18000020A9
:1009B00010B58AB003A8FFF7BBFDDDE90430094C90
:1009C000039A009008492046E2F786FFDDE90831E6
:1009D0000698079ACDE9001004492046E2F77CFF0B
:1009E0000AB010BD4444050850F8040874F804081F
:1009F0002DE9F047DFF868A14A49DAF8FC214A48B6
:100A0000E2F76AFFDAF8F401800078D0DFF8549159
:100A1000DFF85481444F00250EE0012E48D02E22ED
:100A200042493846E2F758FFDAF8F4310135B5EBC0
:100A3000830F4FEA830062D205F00306AA06DAF8B4
:100A4000F0114FEA46060BD0AB08CB5C43FA06F632
:100A500006F00306022E29D0032EDED16D22DFE739
:100A60002C46A20804F003038A5C5B0042FA03F3FD
:100A70009B0702D101348442F3D3621B7F2A0CD935
:100A80002B4992093846E2F727FFDAF8F43124F0CF
:100A90003F05B5EB830F32D20026414609EA051225
:100AA0003846E2F719FFDAF8F011CDE73D22B7E753
:100AB000DAF8FC211F492B01D2588A421DD01E4B67
:100AC0009A4222D01D4B9A4223D01D4B9A421ED0EF
:100AD0001C4B9A421BD01C4B9A421CD01B4B9A4277
:100AE00019D01B4B9A421AD01A4B9A4215D01A4B66
:100AF0009A420CBF4D22682292E7542290E7BDE84B
:100B0000F04716490848E2F75DBB4C2288E75322BC
:100B100086E7442284E7412282E7422280E7462298
:100B20007EE700BFBCF804084444050800F9040847
:100B3000DCF80408C0790508686B0508F85D05084D
:100B400040770508DC740508985905085C590508C4
:100B5000A865050838660508146D0508D8F8040866
:100B600018000020F0FF0F00F8F80408054B5B693F
:100B70005A68824204D8801A043053F82000704723
:100B80001B68F5E718000020014441F20553884234
:100B900004D398B2012838BF0120704710F8012B08
:100BA00003EB43135340F2E7034B044A5A6100221C
:100BB000C3F8D421704700BF180000205CF105087D
:100BC0002DE9F84F80460D46FFF7DEFF134B5C69B9
:100BD00007460CB920461EE0E36804F1100B0BEB4E
:100BE00083095E464E45B24601D32468F1E756F8C4
:100BF000040B0388BB42F5D18378AB42F2D12A467D
:100C0000414603301EF0BCFB0028EBD16068AAEB24
:100C10000B0A00EBAA00BDE8F88F00BF1800002007
:100C20002DE9F04780460E46FFF7CAFF024600282E
:100C300077D1FF2E03D9404940480AF0A9FD404C26
:100C4000D4F8D401351D90B1D4E976132B448B42EE
:100C50002BD92944FFF746FA0746E8B90246D4F8EB
:100C6000DC11D4F8D401FFF73DFAC4F8D471802D1B
:100C70002F4638BF80273846FFF719FAC4F8D40149
:100C8000002852D12846FFF712FAC4F8D4010028F0
:100C90004AD128460BF0EAFAD4F8D8312B44C4F8EC
:100CA000D831D4F8D431002BE1D0D4F8DC91D4F889
:100CB000D4A131464D444046C4F8DC51FFF764FFEF
:100CC0000AEB09070AF80900000A7870BE7032467C
:100CD0004146F81C1EF0E8FAB9190026CE70636987
:100CE000D3E90253AB4212D36D000A2D38BF0A2557
:100CF000281D8000FFF7DBF90028CAD06269026076
:100D00005368D268C6601344C0E901356061636905
:100D1000D9685A68481C0431D860013A43F82170F8
:100D200002441046BDE8F0872F460023C4F8D8716E
:100D3000C4F8DC31B9E700BF03F90408046305080F
:100D40001800002010B504461EF02CFB014620467A
:100D5000BDE81040FFF764BF08B5FFF707FF008844
:100D600008BD08B5FFF702FF807808BD08B5FFF79A
:100D7000FDFE033008BD08B5FFF7F8FE83780B6071
:100D8000033008BD2DE9F8431D46002303600B60C6
:100D900013602B60174BDFF860905C69074688464C
:100DA00016460CB14C4505D12B68326813442B60B4
:100DB000BDE8F8833B6801333B60E268D8F8003057
:100DC0001344C8F80030E26804F1100303EB820218
:100DD000934207D32046FFF703FD2B68246818448D
:100DE0002860DEE753F8041B887831680431014439
:100DF0003160EDE7180000205CF105082DE9F843AB
:100E00000E4B0F4F5C69DFF83C80DFF83C900CB173
:100E1000BC4201D1BDE8F883E36804F1100505EB9D
:100E20008306B54201D32468F1E755F8042B414607
:100E300003324846E2F750FDF3E700BF18000020F8
:100E40005CF105080BF904084444050830B500239B
:100E5000202411F8012F0AB9027030BD120600F1EA
:100E600001051FD50BB1047028460B78124A03F018
:100E70007F036BB9013A12F8013F13F0800F05466A
:100E800000F101000BD003F07F032B700123E0E79A
:100E900012F9015B002DFBDA013BDBB2E9E700F858
:100EA000013CE8E7012B04BF047028460B7800F8EA
:100EB000013B0223CDE700BF12F9040838B54468AE
:100EC000036821449942054611D9037BDB0703D50A
:100ED000074800210AF05CFC01F1100424F007042B
:100EE000083480682146FFF7F2F82C60A86038BD0E
:100EF0000463050870B504460E4611461546FFF713
:100F0000DDFFD4E901302A46314618441EF0FCF9D1
:100F100062682A44626070BD70B54668B14204469A
:100F200028BF31460D460121FFF7C8FFA368681CA2
:100F30005919721B18441EF0E7F96368A068013361
:100F40006360284470BD38B50129044638BF0121CB
:100F50000025084621606560FFF79EF8237BA060AE
:100F600065F30003237338BD38B505460C460131DF
:100F7000FFF7E9FF6C6038BD0023C0E90132037B55
:100F8000016043F0010303737047000038B5144655
:100F90000546FFF7D8FF024B2560636038BD00BFF0
:100FA000F50E0208037BDB0710B5044602D4806807
:100FB000FFF79AF80023A36010BD13B5019010202D
:100FC000FFF76AF801990446FFF7BDFF204602B01B
:100FD00010BD10B5044650B1037BDB0702D4806816
:100FE000FFF782F82046BDE81040FFF77DB810BD3E
:100FF00038B5037BDB0704460D4603D507480021BF
:101000000AF0C6FB016880682944FFF760F823688E
:10101000A0601D442560184438BD00BF0463050866
:1010200038B504460D46FFF749FFD4E901301D44A9
:101030006560184438BDD0E900239A4210B50446D3
:1010400002D10121FFF7D4FFD4E901320021D154AC
:10105000A06810BD10B50C460121FFF7E1FF047038
:1010600010BD7F29F8B50C46CEB204D80121FFF798
:10107000D7FF0670F8BD06F03F06B1F5006FC1F36B
:10108000871546F0800607D20221FFF7C9FF65F0F9
:101090003F0505704670EDE705F03F05B1F5803F6F
:1010A000C1F3073745F0800508D20321FFF7B8FFE9
:1010B00067F01F07077045708670DBE70421FFF7B4
:1010C000AFFFA40C07F03F0764F00F0467F07F0741
:1010D000047047708570C670CCE713B504460846A7
:1010E00001911EF05FF901990246204602B0BDE869
:1010F0001040FFF7FFBE10B51446FFF70DFF047058
:1011000010BD10B51446FFF707FF047010BD43680B
:101110008B422CBF591A00214160704738B50446F4
:10112000154662688A42084603D929448A4201D892
:10113000606038BDA368521A184419441EF0E4F8E0
:101140006268521B6260F4E790F90010037800298E
:10115000024601DB1846704703F07F004023184227
:1011600006D112F8013F03F0C001802904D0704776
:1011700020EA03005B08F2E703F03F0343EA801034
:10118000EFE7431C18460133027802F0C002802AC0
:10119000F8D0704703460020994200D8704711F8F4
:1011A000012D02F0C002802A18BF0130F4E701448B
:1011B0000346002099421A4600D87047127802F080
:1011C000C002802A03F1010318BF0130F2E70000DA
:1011D0007F289DBF024B185CC0F340000020704781
:1011E0006E4405087F289DBF024B185CC0F3C00009
:1011F000002070476E4405087F289DBF024B185C95
:10120000C0F38000002070476E4405087F289DBF12
:10121000024B185CC0F38010002070476E44050834
:101220007F2809D8064B1B5C13F00C0F06D1A0F1E8
:101230005F035842584170470020704701207047B3
:101240006E4405087F289DBF024B185CC0F3001058
:10125000002070476E4405087F289DBF024B185C34
:10126000C0F34010002070476E44050808B50246E0
:10127000FFF7E8FF00B12032104608BD08B502466E
:10128000FFF7EAFF00B1203A104608BD30380928C0
:1012900084BF20F020000738704710B50144024693
:1012A000E5240020914203D8B0FA80F0400917E00D
:1012B00012F8013B30B103F0C003802B11D101388B
:1012C000C0B2EFE7BF2B09D9F72B09D8D80800F037
:1012D000060044FA00F000F00300E3E71B06E1D546
:1012E00010BD0020FCE7023981420B4603D31A8867
:1012F0000239002AF8D00233181A40107047B2EBB6
:10130000131F70B505464FEA131614D9901B03F04E
:101310000F0401EB460102460E46012A31F8023B5A
:1013200018BF3368E3409BB2013A25F8023BF3D182
:1013300003B9013870BD0020FCE7F0B5059F00241B
:10134000D21B2646A74210D100EB470C01EB470108
:101350000024A24214D10CEB42031EB101212CF84F
:1013600012100233181A4010F0BD31F8145033F83F
:1013700014C06544354420F814502E0C0134E1E7C4
:1013800031F8145035442CF814502E0C0134E0E799
:10139000F0B4049F0025D21B2C46AF420BD100EBCA
:1013A000470601EB470500239A420FD106EB4201A5
:1013B000F0BCFFF798BF31F81560344433F815607E
:1013C000A41B20F8154024140135E6E735F8131066
:1013D0000C4426F8134024140133E5E72DE9F043CB
:1013E000079CDDF828E0DDE90876023915468446D9
:1013F0004FF6FF78A4EB020955B900EB42011FB18B
:10140000012320F812300231BDE8F043FFF76BBF33
:1014100031F8024F013D4444264405EB0904AC4237
:1014200096BF33F8024B4FF6FF744444744486EA87
:10143000040E17FA8EF72CF8027B4FEA144E360C86
:101440003F0CD9E738B502290446806838BF02212D
:101450000D4618B12368B1EB930F07D96900FEF769
:1014600036FE2368A06065F39F03236038BD38B55E
:1014700004460C20FEF710FE23682278054602F091
:101480000102C3F39D0023F0030313432B60636841
:101490006B604000FEF700FEA8602268A168C2F3FE
:1014A0009D0252001DF000FF284638BD994210B53C
:1014B00011D313D800EB410002EB410209B90846F1
:1014C00010BD30F8023D32F8024D1B1B002B02DB31
:1014D00004D10139F2E74FF0FF30F1E70120EFE7E7
:1014E00010B5044638B18068FEF7FEFD2046BDE821
:1014F0001040FEF7F9BD10BD38B505460C46022177
:10150000FFF7A0FF002C2B78B4BF0122002262F36A
:1015100000032B70AB68B4BF61422146023B01223D
:1015200023F8021F090C104602F10102F8D168608D
:1015300038BD0023C0E900338360704728B10378C9
:101540009B0702D48068FEF7CFBD704738B50546CB
:101550000C464968FFF776FF22782B78A86862F37B
:1015600000032B7063686B606268A1685200BDE87D
:1015700038401DF099BE09B941607047FFF7BCBF04
:1015800008B5FFF7D6FFBDE80840FFF7F4BF9200AB
:1015900042F0020210B402600022C0E901215DF8AD
:1015A000044B1946FFF7E7BFF8B59DF81870042102
:1015B000064614461D46FFF745FF77B1002D0CDAAD
:1015C000624265EB4503317867F300013170002119
:1015D000716052EA030104D1F8BD22462B46002770
:1015E000F1E7D6E901104C1C746020F81120120CB0
:1015F00042EA03421B0CECE72DE9F3418DED010AB1
:10160000019C0378E20F62F300030370C4F30F43FD
:1016100013F4FF43074604D100237B6002B0BDE80A
:10162000F081B3F5FF4FF7D0C4F3C753A3F17F05A3
:10163000002DF1DB05D1012102B0BDE8F041FFF73B
:101640005BBFB3F16F0848BFA3F16008C4F3160491
:10165000162D4FEA281844F4000421DCC5F11705C3
:10166000EC4000252E4641463846FFF7EBFEC7F812
:10167000048026B1B868720000211DF059FE45B102
:10168000BB6804FA05F223F81620C5F11005EC40FA
:101690000136B045C2D0BB6823F81640240CF7E7EA
:1016A000B3F1960605F1090548BFA3F1870605F0D9
:1016B0000F053611D7E72DE9F84304468F18C2F31A
:1016C0005B020D46511C9846089EFFF7BBFE23782F
:1016D00068F3000323700023636029461FFA86FC29
:1016E000B942084602D3401BBDE8F8830278A2F154
:1016F0003003092B01F1010105D9A2F14103192B96
:1017000014D8A2F13703B342EDD2D4E901E0F04698
:101710008146B8F1000F10D100EB4E0213B120F852
:101720001E300232121A52106260D9E7A2F1610330
:10173000192BD8D8A2F15703E5E7B9F8002002FB2E
:101740000C3329F8023B08F1FF381B0CE1E7F8B530
:10175000044615461E46C1B1531E1E444FF0FF37C6
:10176000E9000F3109092046FFF76CFE23780021BC
:101770006FF30003237061604DB9D4E9011000EBF1
:101780004101FFF7B0FD6060F8BD0127E8E70023E5
:101790000F2908DC32788A401343013D9BB201F1E6
:1017A00008013E44F4D16268501C6060A0681039A2
:1017B00020F81230E0E770B5466804460EB9486874
:1017C00080B10B78257803F0010305F00100181AA9
:1017D00008D1D1E90132A0683146FFF767FEEB0777
:1017E00048BF404270BD884210B5044601D0FFF7A3
:1017F000ADFE23786FF30003237010BD884210B54F
:10180000044601D0FFF7A2FE2378C3F30002C2F121
:10181000010262F30003237010BD88421FB5044625
:1018200001D0FFF793FE626862B901212046FFF7FD
:1018300009FEA268012313806360237843F001034B
:10184000237010E02378D9070FD5A1686FF3000348
:1018500023700123ADF80E30009308460DF10E03FE
:10186000FFF796FD606004B010BD511C2046FFF7E5
:10187000E9FDD4E901210123ADF80E3000930846BB
:101880000DF10E03FFF759FD6060D6E72DE9F8432F
:101890004B6805460E46144603B12AB93146284620
:1018A000BDE8F843FFF752BE02F10F014FEA1118ED
:1018B00003EB1111FFF7C6FDD6E9013108EB030771
:1018C000A86807F1004214F00F0402F1FF3208BFCC
:1018D000102400EB420001EB430E814619464FF005
:1018E000000CC4F11004E9B96FF0010253432CFA63
:1018F00004F4C218C452C8F1010302EB430308F117
:10190000FF32184652001DF013FD831E17B133F845
:1019100017209AB16F6032782B7862F300032B7036
:10192000BDE8F8833EF8022D42EA0C0C2CFA04F2D2
:1019300029F802294FEA0C4C0139D4E7013FE5E7C9
:10194000F0B50E46496885B00546144601B132B976
:101950003146284605B0BDE8F040FFF7F7BDFFF778
:1019600071FDD6E901212346A868FFF7C8FC68602D
:1019700032782B7862F300032B70DB072DD5002320
:101980007168ADF80E302209994201D093420FD10F
:10199000914222D9B36804F00F0433F812200123D6
:1019A00003FA04F4013C224213D0ADF80E3008E0F3
:1019B000B76837F8137057B101239142ADF80E3074
:1019C000E8D8A968012350B90B806B6005E00133AA
:1019D000DAE7BDF80E30002BF3D105B0F0BD00936F
:1019E00002460DF10E030846FFF7A7FC6860F4E716
:1019F00073B50C4615460646D2E90132D1E901100D
:101A0000FFF754FD0028BEBF23462C461D46237811
:101A10002A7861685340DB0713D401313046FFF761
:101A200011FD6B680093D4E90121AB68B068FFF742
:101A300084FC70602278337862F30003337002B064
:101A400070BD3046FFF7FEFC6B680093D4E90121BE
:101A5000AB68B068FFF79CFCEBE7F7B50C461546A2
:101A60000646D2E90132D1E90110FFF71FFD002837
:101A7000BEBF23462C461D4623782A78616883EA38
:101A80000203B4BF01270027DB0718D50131304618
:101A9000FFF7D8FC6B680093D4E90121AB68B0680C
:101AA000FFF74BFC7060237803F001030FB183F064
:101AB0000103327863F30002327003B0F0BD3046A8
:101AC000FFF7C0FC6B680093D4E90121AB68B068F4
:101AD000FFF75EFCE6E72DE9F04F15464A686B68B4
:101AE0009A420E463EBF2E460B461D46337871681D
:101AF000DB0785B0044621D42B7813F001071DD1F4
:101B0000FFF7A0FCD5E9011CA068B6683B469942E6
:101B10000BD100EB4101FFF7E6FB237860606FF328
:101B20000003237005B0BDE8F08F36F813203CF8B1
:101B300013502A4020F813200133E8E701312046F2
:101B4000FFF780FC96F800A02B78D6F804C0A068B8
:101B50008AEA0307FF4307F0010E47F30007BFB20D
:101B6000D5E901120AF001084AF3000A02971FFAA8
:101B70008AF703F00109019743F30003B7689BB2AA
:101B8000A1EB0C01A7F1020A00936746834603917B
:101B9000BFB900EB4C01BEF1000F03D0012320F8C8
:101BA0001C300231FFF79FFB606033782A78C3F363
:101BB0000003C2F300021340227863F30002227094
:101BC000B0E73AF8021F019B5940039B013F88444C
:101BD000D919B9429BBF32F8021B009B00995940AA
:101BE0008944029B08EA090159401EFA81F12BF849
:101BF000021B4FEA19494FEA18484FEA114EC7E74E
:101C00002DE9F84F16464A6873689A420D463EBF62
:101C100035460B461E462B786968DB07044631D4EF
:101C2000327812F001072DD1FFF70CFCD6E9013E06
:101C3000A9686D68D4F808C0ED1A3A46934212D1EB
:101C400001EB430100220CEB4303954214D103EB5B
:101C50004503A3EB0C035B10636023786FF3000371
:101C60002370BDE8F88F31F812003EF8126030435F
:101C70002CF812000132E1E731F8120023F81200CB
:101C80000132E2E701312046FFF7DCFB2A783378A6
:101C90006968A068AD68D6E901E702F0010803F0C1
:101CA000010942F3000243F30003A5F1020C92B2D2
:101CB0009BB20E4682460125AEEB010E46B900EB03
:101CC0004101FFF710FB2378606043F00103C7E791
:101CD0003CF802BF013E8BEA020BD8440EEB060B28
:101CE000B34596BF37F802BB9B468BEA030BD9443A
:101CF00048EA090B6FEA0B0B15FA8BF52AF8025B21
:101D00004FEA19494FEA18482D0CD7E7F0B51646A7
:101D10004A6873689A4238BF0B460C463CBF34464B
:101D20001E462778337861685F4017F0010785B059
:101D300005463AD1FFF786FB237813F0010328D13B
:101D4000D6E9012C6168A868A768891A9A4211D15E
:101D500007EB4207002300EB4202994213D102EB4A
:101D60004101FFF7C0FA2B7868606FF300032B7016
:101D700005B0F0BD37F813403CF81360744020F80C
:101D800013400133E2E737F8134022F813400133E0
:101D9000E3E7CDE90277019773680093D4E9012165
:101DA000B368A868FFF71AFBDDE70131FFF74AFBCC
:101DB0003378A868DB4303F0010303932378DB4304
:101DC00003F0010302930123019373680093B36846
:101DD000D4E90121FFF702FB2B78686043F001038F
:101DE000C5E72DE9F04F4B6885B006460D46144611
:101DF0000BB1536823B90023736005B0BDE8F08FC1
:101E000081422ED1FFF733FBB4420546074600D18D
:101E100004466368696830461944FFF713FB32686B
:101E2000B068C2F39D02520000211DF081FAAB6838
:101E3000D6F808E0D5F804900193A3680293002235
:101E4000636803930EEB4908F4461146039B9342E3
:101E500031D0DDF804B0CDF80090ACF102000023E1
:101E600018E0824204D1FFF702FB04460746D0E7A0
:101E70000027CEE730F802AF53441946029B3BF8E7
:101E800002AB33F8123003FB0A13009903800139C7
:101E90001B0C009100990029ECD14146881C13B11C
:101EA000A8F800300146A1EB0E0149100CF1020C1C
:101EB00001328046CAE7716022782B78534032782D
:101EC000384663F30002327005B0BDE8F04FFFF70B
:101ED00007BB4B6870B50646144613B11378DA0792
:101EE00002D50023736070BD636823B9BDE87040FC
:101EF0000121FFF701BB0846FFF7B9FA0546204666
:101F0000FFF7B5FA012104463046FFF7F5FA63689A
:101F100083B1A3681B88DB0704D52A4631463046C7
:101F2000FFF75FFFD4E9012101230846FFF7E7F936
:101F3000606038B92846FFF7D3FA2046BDE8704004
:101F4000FFF7CEBA2A4629462846FFF74AFFDEE7C2
:101F50002DE9F04F0C4651688FB090460131029345
:101F60000546FFF76FFAD8F80420A868013252003E
:101F700000214FF000091DF0DBF9C5F80490D8F8F6
:101F8000041020460131FFF75DFA41462046FFF775
:101F9000DDFA029BA7686668D3E9013A0193AB6852
:101FA00003935246019B31463846FFF77FFA0028DB
:101FB00023D1039A6060012313806B60029A98F822
:101FC000003012785340DB0714D52B7843F001031F
:101FD0002B70636873B14FF0FF310BA8FFF7D0FA95
:101FE0000BAA29462846FFF703FD029A2146204600
:101FF000FFF7FEFC0FB0BDE8F08F02DAC5F80490E1
:10200000DCE7019B03F10042013A4FEA420E3AF845
:102010001230180409F1010151D507EB460B0021DC
:1020200027F81610731C1FFA89F95E46B01CC9F117
:1020300010060490636038460596049EB04242D371
:102040003AF8122002FA09F20492019A012A09D9F7
:102050000AEB0E02C9F1100132F8022CCA400499B1
:1020600011430491019A9B1A6B60039A03F1004398
:10207000013B02EB430306930EF102030993AAF11D
:10208000020A63680593059A019B934227D302F1E4
:10209000004B0BF1FF3B07EB4B0B0021C9F110008C
:1020A0005F4578D96FF000416B682BB103985A18DF
:1020B00030F81220002A78D06FF000417AE05B00FF
:1020C0009BB28946A5E7B0F800C00CFA09F6314387
:1020D00020F8021B05992CFA01F189B2ADE7BBF893
:1020E00000303BF8022C42EA0342049BB2FBF3F2BD
:1020F000099BABEB0303CDE9073A9C4600239E46C0
:10210000E3450ED8BBF800105B1A002B3ED1069BAE
:1021100023F802290693059B013BABF1020B636098
:10212000AFE70898BCF8006030F8021F089001FA89
:1021300009F141EA1E4E1FFA8EF15143B14202D21B
:10214000701A98420CD80B44991BF31A98B28BB2B0
:10215000003B18BF012303EB11432CF8020BCFE720
:10216000C01A80B20023F8E73EF8026F06FA09F6BB
:1021700046EA1C4C068811FA8CF1314420F8021B07
:10218000090C8345F0D85B1A013ABEE70021079895
:10219000D6468C46F5E7BBF8003043FA09F20A430D
:1021A00083402BF8022999B27AE7013B6B607BE709
:1021B000013B63606368002B3FF400AF5A1837F8A7
:1021C0001220002AF4D0F9E6F0B51F464B6885B01E
:1021D00006460C4615464BB11378DA0706D47B68E1
